:100000000C9443000C9460000C9460000C9460000D
:100010000C9460000C9460000C9460000C946000E0
:100020000C9460000C9460000C9460000C946000D0
:100030000C9460000C9460000C9460000C946000C0
:100040000C94DA010C9460000C9460000C94600035
:100050000C9460000C9460000C9460000C946000A0
:100060000C9460000C94600005A84CCDB2D44EB93D
:100070003836A9020C50B9918688083CA6AAAA2A4B
:10008000BE000000803F11241FBECFEFD8E0DEBFCE
:10009000CDBF11E0A0E0B1E0E6E4F1E102C00590DF
:1000A0000D92A831B107D9F721E0A8E1B1E001C074
:1000B0001D92A532B207E1F70E9425020C94A10817
:1000C0000C940000DC01ED91FC910190F081E02D99
:1000D0000994FB0101900020E9F73197AF01461B1D
:1000E000570BDC01ED91FC910280F381E02D099426
:1000F0008F929F92AF92BF92EF92FF920F931F93B6
:10010000CF93DF93CDB7DEB7A1970FB6F894DEBFDC
:100110000FBECDBF7C01FA01CB0119A2223008F439
:100120002AE08E010F5D1F4F822E912CB12CA12C45
:10013000BF01A50194010E945A07F901CA016A3062
:100140000CF5605DD8016E938D01232B242B252B9C
:1001500079F790E080E0109721F0BD01C7010E947F
:100160006900A1960FB6F894DEBF0FBECDBFDF9138
:10017000CF911F910F91FF90EF90BF90AF909F9004
:100180008F900895695CDECF2F923F924F925F92DD
:100190006F927F928F929F92AF92BF92CF92DF9297
:1001A000EF92FF921F93CF93DF93EC016A017B01E3
:1001B000722EAB019601CB01B6010E940C076CE0D8
:1001C00071E0811126C046015701E894B7F82FEF7E
:1001D0003FEF4FE75FE7C501B4010E940C078111B3
:1001E0000CC02FEF3FEF4FE75FE7C501B4010E945E
:1001F000F60460E171E0181664F02FEF3FEF4FE76F
:100200005FE4C701B6010E9492061816B4F464E1D7
:1002100071E0CE01DF91CF911F91FF90EF90DF90C1
:10022000CF90BF90AF909F908F907F906F905F9096
:100230004F903F902F900C9469002FEF3FEF4FE7C6
:100240005FECC701B6010E94F60487FDE0CF20E015
:1002500030E0A901C701B6010E94F604312C212C1F
:1002600087FF09C06DE2CE010E9462001C01F7FA0F
:10027000F094F7F8F09410E060E070E080E09FE325
:10028000711641F020E030E040E251E40E940005A8
:100290001F5FF6CFA70196010E948A042B013C0143
:1002A0000E9472054B015C012AE0BC01A401CE0151
:1002B0000E9478007C01E20CF31C1123C1F1C501FE
:1002C000B4010E94A1059B01AC01C301B2010E94CF
:1002D00089044B015C016EE2CE010E946200E80ECF
:1002E000F91E115020F120E030E040E251E4C50158
:1002F000B4010E9497062B013C010E9472054B013C
:10030000B12CA12C2AE0B501A401CE010E947800F5
:10031000E80EF91EC501B4010E94A1059B01AC01C4
:10032000C301B2010E9489044B015C01DACFC7010D
:10033000DF91CF911F91FF90EF90DF90CF90BF9012
:10034000AF909F908F907F906F905F904F903F9075
:100350002F900895EF92FF920F931F93CF93DF9307
:100360007C018B01FC01428153816481758123E012
:10037000C8010E94C400EC0160E2C8010E94620052
:10038000C80FD91FF701468157816085718523E029
:10039000C8010E94C400C80FD91F69E6C8010E94A5
:1003A00062008C0F9D1FDF91CF911F910F91FF90E5
:1003B000EF9008951F920F920FB60F9211242F9372
:1003C0003F938F939F93AF93BF9380911D01909123
:1003D0001E01A0911F01B091200130911C0123E06A
:1003E000230F2D3758F50196A11DB11D20931C0137
:1003F00080931D0190931E01A0931F01B0932001D3
:100400008091180190911901A0911A01B0911B01DE
:100410000196A11DB11D8093180190931901A0931D
:100420001A01B0931B01BF91AF919F918F913F91A2
:100430002F910F900FBE0F901F90189526E8230F55
:100440000296A11DB11DD2CF0895CF93DF93CDB7F2
:10045000DEB7A6970FB6F894DEBF0FBECDBF789477
:1004600084B5826084BD84B5816084BD85B58260B9
:1004700085BD85B5816085BD80916E00816080936A
:100480006E001092810080918100826080938100D3
:1004900080918100816080938100809180008160E3
:1004A000809380008091B10084608093B10080913E
:1004B000B00081608093B00080917A008460809366
:1004C0007A0080917A00826080937A0080917A002D
:1004D000816080937A0080917A00806880937A00AE
:1004E0001092C10080E590E00E947C079A83898386
:1004F000DC0112961D921D921D921C921597FC0113
:10050000168217821086118680E090E0A0E8BFE393
:1005100084879587A687B787808B918BA28BB38BB7
:1005200040E050E060E470E4468B578B608F718F41
:10053000428F538F648F758FC12CD12C10E8E12E20
:1005400010E4F12EC0A2D1A2E2A2F3A2C4A2D5A2CD
:10055000E6A2F7A2C2A6D3A6E4A6F5A6C6A6D7A68B
:10056000E0AAF1AA44AB55AB66AB77AB40AF51AF55
:1005700062AF73AFFE9680839183A283B383E981D8
:10058000FA81EE5BFF4F80839183A283B383E9817D
:10059000FA81EA5BFF4F128213821482158216825F
:1005A00017821086118680E590E00E947C079E836A
:1005B0008D83805B9F4FED81FE812AE031E03183A6
:1005C000208312821382148215821682178210866B
:1005D00011863A968E179F0791F730E020E04AE0A7
:1005E000C901880F991F8270992721FB002700F904
:1005F00010E0802B912B880F991FB9017695679594
:1006000076956795862B972B489FF001499FF00DB3
:1006100011246D817E816E0F7F1FE981FA818281B5
:100620009381A481B581FB0182839383A483B583E5
:10063000E981FA8186819781A085B185FB01868356
:100640009783A087B1872F5F3F4F89819A810A9650
:100650009A8389832830310519F6A1E0B0E0BA8386
:10066000A983E1E0F0E0098002C0EE0FFF1F0A94C9
:10067000E2F7FC8BEB8BF595E795F88BEF87BF01E5
:10068000FF0F880B990B0E94A3059B01AC016BED3A
:100690007FE089E490EC0E9400056B017C010E94E0
:1006A00004076D8B7E8B8F8B988FC701B6010E94DC
:1006B000FB04698F7A8F8B8F9C8F2AE030E0098052
:1006C00002C0220F331F0A94E2F73E8F2D8FEAE01B
:1006D000AF85B889EA9FC001EB9F900D11249CA3C0
:1006E0008BA32D813E813A872987412C512C3201E1
:1006F00010E000E030E83B834FE34C8318861F8214
:100700008BA19CA1A985BA858A0F9B1F9EA38DA34F
:100710001D01EF81F885FA8BE98BADA1BEA1129680
:10072000CD90DD90ED90FC90159716968D909D9054
:10073000AD90BC901997A7019601612F702F8B8106
:100740009C810E9497066B877C878D879E87A3017B
:100750009201C501B4010E9497069B01AC016B8513
:100760007C858D859E850E9489046F8F78A389A3DF
:100770009AA3A5019401612F702F8B819C810E9407
:1007800097064B015C01A3019201C701B6010E94CB
:1007900097069B01AC01C501B4010E948A044B017C
:1007A0005C01D10112968D919D910D90BC91A02D6F
:1007B0008B879C87AD87BE87F101C680D780E08498
:1007C000F1842F8D38A149A15AA1BC01CD010E940D
:1007D0008A04D10112966D937D938D939C93159706
:1007E000A5019401C701B6010E948A04F101668344
:1007F0007783808791872F8D38A149A15AA16B8576
:100800007C858D859E850E948904ADA1BEA112962E
:100810006D937D938D939C931597A5019401C701CA
:10082000B6010E948904EDA1FEA1668377838087CB
:10083000918729893A898B899C89280F391F3A8B9E
:10084000298BAD8DBE8DEA0FFB1FFEA3EDA32A0EF3
:100850003B1E283031050CF460CF212F302F4B8107
:100860005C81698D7A8D8B8D9C8D0E9497066B01C2
:100870007C01A30192016D897E898F89988D0E94E8
:1008800097069B01AC01C701B6010E9489046B0168
:100890007C01212F302F4B815C816D897E898F896E
:1008A000988D0E9497064B015C01A3019201698D0E
:1008B0007A8D8B8D9C8D0E9497069B01AC01C501A2
:1008C000B4010E948A042B013C01EF81F885319626
:1008D000F887EF8329853A85265F3F4F3A87298736
:1008E0001C2D0D2DEB82FC828F8598898E179F071A
:1008F00009F006CFA981BA811196BA83A98314970A
:1009000009F0AFCEE0E0F0E0EF2BE1F30E94000051
:10091000F9CF5058BB27AA270E94A1040C94440683
:100920000E940B0638F00E94120620F039F49F3F17
:1009300019F426F40C9408060EF4E095E7FB0C94E9
:100940000206E92F0E94690658F3BA176207730777
:100950008407950720F079F4A6F50C948B060EF425
:10096000E0950B2EBA2FA02D0B01B90190010C01BF
:10097000CA01A0011124FF27591B99F0593F50F4D7
:10098000503E68F11A16F040A22F232F342F44272F
:10099000585FF3CF469537952795A795F040539527
:1009A000C9F77EF41F16BA0B620B730B840BBAF0F7
:1009B0009150A1F0FF0FBB1F661F771F881FC2F762
:1009C0000EC0BA0F621F731F841F48F48795779576
:1009D0006795B795F7959E3F08F0B0CF9395880F30
:1009E00008F09927EE0F9795879508950E94DE05E8
:1009F00008F481E008950E941B06E3950C945506C7
:100A00000E9414050C9444060E94120658F00E949D
:100A10000B0640F029F45F3F29F00C9402065111B7
:100A20000C948C060C9408060E94690668F39923BE
:100A3000B1F3552391F3951B550BBB27AA276217DA
:100A40007307840738F09F5F5F4F220F331F441FE7
:100A5000AA1FA9F335D00E2E3AF0E0E832D091501B
:100A60005040E695001CCAF72BD0FE2F29D0660F08
:100A7000771F881FBB1F261737074807AB07B0E84B
:100A800009F0BB0B802DBF01FF2793585F4F3AF051
:100A90009E3F510578F00C9402060C948C065F3F43
:100AA000E4F3983ED4F3869577956795B795F795D7
:100AB0009F5FC9F7880F911D9695879597F90895BF
:100AC000E1E0660F771F881FBB1F6217730784075B
:100AD000BA0720F0621B730B840BBA0BEE1F88F76A
:100AE000E09508950E94710688F09F5798F0B92FFD
:100AF0009927B751B0F0E1F0660F771F881F991F53
:100B00001AF0BA95C9F714C0B13091F00E948B0663
:100B1000B1E008950C948B06672F782F8827B85F73
:100B200039F0B93FCCF3869577956795B395D9F7AA
:100B30003EF490958095709561957F4F8F4F9F4FB4
:100B40000895E89409C097FB3EF4909580957095C0
:100B500061957F4F8F4F9F4F9923A9F0F92F96E909
:100B6000BB279395F695879577956795B795F1117E
:100B7000F8CFFAF4BB0F11F460FF1BC06F5F7F4F1B
:100B80008F4F9F4F16C0882311F096E911C077232D
:100B900021F09EE8872F762F05C0662371F096E836
:100BA000862F70E060E02AF09A95660F771F881F05
:100BB000DAF7880F9695879597F90895990F0008A9
:100BC000550FAA0BE0E8FEEF16161706E807F9071F
:100BD000C0F012161306E407F50798F0621B730BBA
:100BE000840B950B39F40A2661F0232B242B252B3B
:100BF00021F408950A2609F4A140A6958FEF811DDE
:100C0000811D089597F99F6780E870E060E008957E
:100C10009FEF80EC089500240A9416161706180614
:100C20000906089500240A941216130614060506F0
:100C300008950C9408060E947106D8F3E894E0E049
:100C4000BB279F57F0F02AED3FE049EC06C0EE0FBE
:100C5000BB0F661F771F881F28F0B23A6207730721
:100C6000840728F0B25A620B730B840BE3959A95B4
:100C700072F7803830F49A95BB0F661F771F881F74
:100C8000D2F790480C941307092E0394000C11F42A
:100C9000882352F0BB0F40F4BF2B11F460FF04C057
:100CA0006F5F7F4F8F4F9F4F0895EF93E0FF07C017
:100CB000A2EA2AED3FE049EC5FEB0E94A1040E940A
:100CC00044060F90039401FC9058E8E6F0E00C9481
:100CD0001F0757FD9058440F551F59F05F3F71F0A3
:100CE0004795880F97FB991F61F09F3F79F0879593
:100CF0000895121613061406551FF2CF4695F1DF1C
:100D000008C0161617061806991FF1CF86957105AB
:100D1000610508940895E894BB2766277727CB01DF
:100D200097F908950E94DE0508F48FEF08950E9458
:100D3000AA060C9444060E940B0638F00E94120684
:100D400020F0952311F00C9402060C94080611244F
:100D50000C948C060E94690670F3959FC1F3950F61
:100D600050E0551F629FF001729FBB27F00DB11D2F
:100D7000639FAA27F00DB11DAA1F649F6627B00DBF
:100D8000A11D661F829F2227B00DA11D621F739FA8
:100D9000B00DA11D621F839FA00D611D221F749FB6
:100DA0003327A00D611D231F849F600D211D822FFD
:100DB000762F6A2F11249F5750409AF0F1F0882324
:100DC0004AF0EE0FFF1FBB1F661F771F881F915051
:100DD0005040A9F79E3F510580F00C9402060C94F8
:100DE0008C065F3FE4F3983ED4F38695779567953C
:100DF000B795F795E7959F5FC1F7FE2B880F911D7B
:100E00009695879597F908959F930E941B060F90DA
:100E100007FCEE5F0C9455060E94DE05880B990BCB
:100E200008959F3F31F0915020F48795779567950D
:100E3000B795880F911D9695879597F908959F937B
:100E40008F937F936F93FF93EF939B01AC010E946D
:100E50009706EF91FF910E9433072F913F914F9199
:100E60005F910C949706DF93CF931F930F93FF929C
:100E7000EF92DF927B018C01689406C0DA2EEF01BD
:100E80000E94AA06FE01E894A5912591359145910D
:100E90005591A6F3EF010E94A104FE019701A8015C
:100EA000DA9469F7DF90EF90FF900F911F91CF9147
:100EB000DF910895A1E21A2EAA1BBB1BFD010DC0F4
:100EC000AA1FBB1FEE1FFF1FA217B307E407F507FA
:100ED00020F0A21BB30BE40BF50B661F771F881FD6
:100EE000991F1A9469F760957095809590959B016C
:100EF000AC01BD01CF0108950F931F93CF93DF93F2
:100F00008230910510F482E090E0E0912301F091AD
:100F1000240130E020E0B0E0A0E0309799F4211502
:100F2000310509F44AC0281B390B24303105D8F5A6
:100F30008A819B816115710589F1FB01938382830D
:100F4000FE0111C040815181028113814817590768
:100F5000E0F04817590799F4109761F012960C9336
:100F6000129713961C933296CF01DF91CF911F9168
:100F70000F9108950093230110932401F4CF2115BC
:100F8000310551F04217530738F0A901DB019A01EE
:100F9000BD01DF01F801C1CFEF01F9CF909324012A
:100FA00080932301CDCFFE01E20FF31F8193919334
:100FB0002250310939832883D7CF209121013091E4
:100FC0002201232B41F4209102013091030130933F
:100FD000220120932101209100013091010121156E
:100FE000310541F42DB73EB7409104015091050100
:100FF000241B350BE0912101F0912201E217F30748
:10100000A0F42E1B3F0B2817390778F0AC014E5F78
:101010005F4F2417350748F04E0F5F1F5093220192
:1010200040932101819391939FCFF0E0E0E09CCF2A
:10103000CF93DF930097E9F0FC013297138212827D
:10104000A0912301B0912401ED0130E020E0109740
:10105000A1F420813181820F931F209121013091D1
:1010600022012817390709F061C0F0932201E093AB
:101070002101DF91CF910895EA01CE17DF07E8F54E
:101080004A815B819E0141155105B1F7E901FB835E
:10109000EA8349915991C40FD51FEC17FD0761F4FC
:1010A000808191810296840F951FE901998388833D
:1010B000828193819B838A83F0E0E0E012968D9198
:1010C0009C9113970097B9F52D913C911197CD0103
:1010D0000296820F931F209121013091220128173F
:1010E000390739F6309751F51092240110922301F7
:1010F000B0932201A0932101BCCFD383C28340814E
:101100005181840F951FC817D90761F44E5F5F4F57
:1011100088819981480F591F518340838A819B811F
:10112000938382832115310509F0B0CFF093240118
:10113000E09323019ECFFD01DC01C0CF1382128218
:06114000D7CFF894FFCFA9
:1011460000002501800000000000AA016E616E000B
:08115600696E66006F76660009
:00000001FF
